:020000040800F2
:10000000301E0120C10100089134000805320008AB
:100010008D340008D10A0008AD3800080000000047
:1000200000000000000000000000000099340008FB
:10003000590B000800000000953400089D340008AA
:10004000DB010008DB010008DB010008DB01000820
:10005000DB010008DB010008DB010008DB01000810
:10006000DB010008DB010008DB010008DB01000800
:10007000DB010008DB010008DB010008DB010008F0
:10008000350B0008410B0008C50A0008DB01000819
:10009000DB010008DB010008DB010008DB010008D0
:1000A000DB010008DB010008DB010008DB010008C0
:1000B000DB010008DB010008DB010008DB010008B0
:1000C000DB010008DB010008DB010008DB010008A0
:1000D000DB010008A1380008DB010008DB01000893
:1000E000DB010008DB010008DB010008DB01000880
:1000F000DB010008DB010008DB010008DB01000870
:10010000DB010008DB010008DB010008DB0100085F
:10011000DB010008DB010008DB010008DB0100084F
:100120004D0B0008DB010008DB010008DB010008C3
:10013000DB010008DB010008DB010008DB0100082F
:10014000DB010008DB010008DB010008DB0100081F
:10015000DB010008DB010008DB010008DB0100080F
:10016000DB010008DB010008DB010008DB010008FF
:10017000DB010008DB010008DB01000800000000D3
:10018000DB010008DB010008DB010008DB010008DF
:10019000DB010008DB010008DB010008DB010008CF
:1001A000DB010008DB010008DB010008DFF80CD0F0
:1001B00000F0CEFB00480047093C0008301E01203B
:1001C0000648804706480047FEE7FEE7FEE7FEE7F1
:1001D000FEE7FEE7FEE7FEE7FEE7FEE74D35000837
:1001E000AD0100082DE9F05F0546002092469B46D0
:1001F00088460646814640241BE02846414647463D
:10020000224600F05DFA53465A46C01A914110D377
:1002100011461846224600F044FA2D1A67EB0108F1
:100220004F4622460120002100F03BFA17EB00095F
:100230004E41201EA4F10104DFDC484631462A4627
:100240004346BDE8F09F30B504460020034600E079
:100250005B1C934203D2E05CCD5C401BF8D030BD08
:1002600070B5064604F0FAF8046805460A22002133
:10027000304600F047FA2C6070BD2DE9FE4F8046F5
:1002800081EA0300C00F0C46009021F0004123F0EA
:100290000045B8EB0200A94105D2404621469046F0
:1002A0001C460B46024623F00040104347D0270D62
:1002B000C7F30A00C3F30A510290401A0190402884
:1002C0006BDAC3F3130040F4801B0098924620B110
:1002D0000023D2EB030A63EB0B0B01985946C0F1E4
:1002E0004002504600F0DDF906460D46504659469C
:1002F000019A00F0F5F910EB08006141002487EA4B
:10030000115284EAE7731A4340D0009A62B3019A0B
:10031000012A4FEA075215DC001B61EB02014FF086
:10032000004202EA0752CDE90042001C41F580116B
:1003300032462B4600F08DFA03B0BDE8F08F404600
:100340002146F9E7001B61EB0201001C41F5801317
:1003500000185B412018A2F5001747EB030140EAA3
:10036000D570B6196D4111E06D084FEA360645EAC1
:10037000C0754FEA0752001B61EB0201001C41F5FA
:10038000801149084FEA30000019514132462B468E
:1003900003B0BDE8F04F00F04DBA009801224000D4
:1003A0000023D0EB020263EBE073009821464FEA92
:1003B000E074B8EB000061EB0401E9E783F000436F
:1003C0005BE781F0004158E72DE9FE4F81EA030425
:1003D00004F0004421F0004100944FF0000B23F0A2
:1003E000004350EA01045ED052EA03045BD0C3F339
:1003F0000A54C1F30A552C44A4F2F3340194A0FB2F
:100400000254C1F3130141F48011C3F3130343F405
:10041000801301FB024400FB034E840A970A44EA5E
:10042000815447EA8357A4FB076802958D0A05FBB0
:1004300007854FEA932C04FB0C542705029D4FEAD5
:10044000065847EA1637B5EB08056EEB070C870E22
:10045000920E47EA811742EA8312A7FB0201B6EB2C
:100460000B0164EB00042B0D43EA0C335E1844EBE4
:100470001C50DA465146E7FB0201C5F313044FEA6C
:100480000B3343EA14534FEA0432019C43EA060358
:10049000A4F10C040294009CCDE900B400F0D9F959
:1004A00003B0BDE8F08F00200146F9E72DE9F04DDB
:1004B00081EA030404F0004B21F0004514464FF09C
:1004C000000A23F0004150EA050220D054EA01025C
:1004D0001DD0C5F30A570246C5F31303C1F3130039
:1004E000C1F30A5640F4801543F48013A7EB0608C5
:1004F000101BD64608F2FD3873EB050002D308F155
:10050000010801E092185B41B8F1000F03DA002006
:100510000146BDE8F08D00204FF480110646844668
:100520000EE0171B73EB050705D3121B63EB0503E6
:1005300006434CEA010C49084FEA300092185B412F
:1005400050EA0107EDD152EA030012D082EA04001A
:1005500083EA0501084305D0101BAB4106D20122F6
:10056000002306E000224FF0004302E06FF001029A
:1005700053101AEB06004CEB085110EB0A0041EB4C
:100580000B01BDE8F04D00F055B930B5041E71F116
:10059000000404DB4FF00044404264EB0101141EF0
:1005A00073F1000405DB1C464FF00043524263EB3D
:1005B0000403101A8B4101D2012030BD002030BD50
:1005C0000EB540F2334102910021CDE900110A46F7
:1005D0000B4600F03EF903B000BD70B5C1F30A52FE
:1005E00001F000450024C1F3130140F2FF3341F450
:1005F00080119A4201DA002070BD40F233439A42E2
:10060000A2F2334203DC524200F05AF800E090407C
:100610002C43F1D0404270BD00F0004230F0004069
:100620000AD0C10D01F56071C0F3160042EA015114
:10063000C20840071143704700200146704701F08F
:10064000004330B421F0004150EA010206D00A0D07
:10065000A2F56072C1F31301002A02DC30BC002055
:100660007047440F44EAC104C100E01830BC00EBFD
:10067000C25000F07FB830B50B4601460020202262
:10068000012409E021FA02F59D4205D303FA02F59F
:10069000491B04FA02F52844151EA2F10102F1DCFF
:1006A00030BD202A04DB203A00FA02F10020704716
:1006B0009140C2F1200320FA03F3194390407047A0
:1006C000202A04DB203A21FA02F00021704721FAA7
:1006D00002F3D040C2F1200291400843194670470E
:1006E000202A06DBCB17203A41FA02F043EAE073F6
:1006F00006E041FA02F3D040C2F1200291400843E3
:10070000194670472DE9F04791460F46804604464A
:10071000002614F8015B2DB100F02CF90068405D53
:10072000C007F6D12B2D02D02D2D18D0641E4A46BD
:100730003946204600F022F927B13968A14201D19B
:10074000C7F8008071054FF002040BD54042002825
:1007500003DD03F083FE0460A007BDE8F08746F4E4
:100760008066E4E70028F8DA03F078FE04606FF0B2
:100770000040F2E70029A8BF7047401C490008BFAD
:1007800020F00100704710B4B0FA80FC00FA0CF0C1
:1007900050EA010404BF10BC704749B1CCF12004F9
:1007A00021FA04F411FA0CF118BF01212143084386
:1007B000A3EB0C01CB1D4FEA00614FEA102042BFB2
:1007C000002010BC704700EBC35010440029A4BFA8
:1007D00010BC7047401C490008BF20F0010010BC4D
:1007E0007047F0B400F0004221F0004120F00040DA
:1007F000CE0DC30DC1F3160141F40001C0F3160084
:100800004C42154640F40000761E09E010EB44000F
:1008100002D582F0004240428842F7D840005B1E79
:10082000B342F9DA18B1F0BC0021FFF7ACBF28469B
:10083000F0BC704710B5141E73F1000408DA401CB8
:1008400041F1000192185B411A4301D120F00100EF
:1008500010BD2DE9F04D92469B4611B1B1FA81F2DF
:1008600002E0B0FA80F220329046FFF71AFF044609
:100870000F4640EA0A0041EA0B0153465A46084334
:1008800013D0114653EA010019D0C8F14002504676
:10089000FFF716FF05460E46504659464246FFF7FB
:1008A00000FF084305D0012004E020463946BDE89A
:1008B000F08D0020054346EAE0762C4337430A9842
:1008C0006305E40AA0EB08000022FD0A44EA47544D
:1008D0000A3002D500200146E9E7010510196941F7
:1008E000DDE9084500196941BDE8F04DA2E7C1F313
:1008F0000A52C1F3130140F2FF3341F480119A42CE
:1009000002DA00200146704740F233439A42A2F2D5
:10091000334202DC5242FFF7D3BEFFF7C2BE0000F3
:1009200030B5041E71F1000404DB4FF00044404276
:1009300064EB0101141E73F1000405DB1C464FF04B
:100940000043524263EB0403994208BF904230BD1A
:10095000064C074D06E0E06840F0010394E807000C
:1009600098471034AC42F6D3FFF724FCE455000856
:100970000456000800487047A85400082DE9F05FAD
:1009800082460078002715468B460AF10104B946D5
:10099000302801D09DB113E014F8010B012778280D
:1009A00003D0582801D045B10AE00DB1102D07D170
:1009B0000027102514F8010B02E0082500E00A25A5
:1009C0000026B0460EE005FB080005FB06F10127F6
:1009D00001EB10461FFA80F8B6F5803F00D3B94608
:1009E00014F8010B294600F018F80028EBDABBF1E7
:1009F000000F05D00FB1641E00E05446CBF8004054
:100A0000B9F1000F06D003F029FD02210160C81ED4
:100A1000BDE8F09F48EA0640FAE73A2800D23038AD
:100A200020F02002412A01D3A2F13700884201D3ED
:100A30004FF0FF30704700000146806B036C026C82
:100A400013F0500F08D0D20648BF00F059B9806BA0
:100A5000C26C0846104700BF42F40071016401688F
:100A60008A6812F0405F01D000F038B9027E002A97
:100A7000FAD1CA6A12F4700F02D08A685205F3D410
:100A80004A6822F020024A60016C21F480710164FE
:100A9000016CC90448BF00F021B9016C41F00101AB
:100AA000016400F01BB90000806B40210164416CBF
:100AB00041F00401416400F023B90000806B00F0B4
:100AC0000FB9000040F27000C2F2000000F01AB945
:100AD000FEE7000010B5846B204600F0C5FB012046
:100AE000207110BD10B5846B204600F087FB0120FB
:100AF000207110BD10B5846B206940F004002061A6
:100B0000204600F0B5FB0120207110BD10B5846BAC
:100B1000206940F004002061204600F073FB0120B2
:100B2000207110BD806B00F0A1BB0000806B00F055
:100B300067BB000040F22C10C2F2000000F002BDC2
:100B400040F28C10C2F2000000F0FCBC40F2CC007D
:100B5000C2F2000000F0F6BC7047000072B600BFA1
:100B6000FEE700007047000070B581B000220092DF
:100B700090F83C20012A03D10221084601B070BD43
:100B80000E6801220A2E80F83C2009D3B2B252002E
:100B9000D0F800E012FA86F21E3A0EF10C0305E0DE
:100BA000D0F800E006EB46020EF110034FF0070C00
:100BB0001D680CFA02F4A5431D608D681C6805FAD7
:100BC00002F222431A60496806290FD801EB81011D
:100BD0004A1F71461F2351F8345F934025EA0303EF
:100BE0000B60B3B203FA02F214E000BF01EB810321
:100BF0000C29B2B204D8714651F8304F233B03E0C0
:100C0000714651F82C4F413B1F259D4024EA0505B4
:100C10009A400D600B6842F2043CC4F2010C1A4386
:100C2000ACF541739E450A6006D0002180F83C1067
:100C3000084601B070BD00BF1221112EC1F20001A3
:100C400018BF8E423AD1DCF800208E4222F4800296
:100C5000CCF80020DCF8002042F40002CCF80020A0
:100C6000E3D140F21801C2F2000109684DF6836237
:100C7000C4F21B32A1FB0212910C01EB810149006D
:100C8000009100990029D0D0009901390091009974
:100C90000029CAD000990139009100990029C4D0D7
:100CA00000990139009100990029BED000990139BD
:100CB000009100990029E7D1B7E700BF122EB4D107
:100CC000DCF8001021F40001CCF80010DCF8001072
:100CD00041F48001CCF80010A7E700007047000045
:100CE000006842F20001C4F20101884218BF704757
:100CF00040F22000C2F20000002141647047000071
:100D00007047000070B50446006806684568B10782
:100D100017D515F0200114D0216CC90603D4216C1D
:100D200041F400712164816811F0405F02D1217E9D
:100D3000002969D02046FFF7D1FF20686FF012012B
:100D40000160710714D515F0800111D0216CC9061E
:100D500003D4216C41F400512164816811F4401FD7
:100D600022D02046FFF7FEFE20686FF00C010160E4
:100D7000F10706D015F040011CBF01685FEAC171A0
:100D800034D1B1060FD515F0806108BF70BD616C1C
:100D90006FF0200541F00201616405602046FFF715
:100DA000AFFF2068056070BD816B11F4401F02D059
:100DB00081684905D5D441684905D2D4816811F0CC
:100DC000405FCED1217E0029CBD1416821F0800146
:100DD0004160206C20F480502064206CC005C0D499
:100DE000206C40F001002064BBE700BF206C40F4A1
:100DF00080302064204600F0D1F820686FF00101B7
:100E00000160B106BFD4CEE7C16A11F4700F03D000
:100E1000816849053FF58EAF416821F020014160AE
:100E2000206C20F480702064206CC0043FF582AFF9
:100E3000206C40F0010020647CE70000002804BF23
:100E40000120704710B50446006C00283ED0206C8D
:100E5000C00645D4206C41F202118843023042F2B0
:100E600004312064C4F20101086820F440300860B5
:100E70000A6894E809101A43D4F810E00A6041683F
:100E8000012321F4807141604168C0F6007341EA9A
:100E90000E214160416821F040714160416841EAA2
:100EA0000C014160816821F400618160E168826821
:100EB00011438160A16A8268994222F07062826067
:100EC000826813D122F0405119E000BF204600F0A3
:100ED00067F80020606484F83C00206CC006B9D537
:100EE0000120002184F83C1010BD00BF1143816037
:100EF000816821F040518160E16A8268114381601C
:100F0000816821F0020181608168227E94F820309E
:100F100041EA42018160416883B141F4006141606E
:100F200041684EF2000221F460414160616ACFF6EF
:100F3000FF72436802EB4131194301E021F4006183
:100F40004160C16A40F2000C21F47001C162E269A3
:100F50006169CFF6F07CC36A0CEB02521A43C2629D
:100F6000826822F40072826094F83020836843EA39
:100F700042228260826822F480628260826842EA51
:100F80008121816000206064216C012262F30101F3
:100F90002164002184F83C1010BD0000704700005F
:100FA00070B586B0044642F200002168C4F2010028
:100FB000002681420596049602D006B070BD00BF9F
:100FC00043F630010096C4F202014A6900F5684018
:100FD00042F480724A614A6902F480720092009A77
:100FE00000960A6842F004020A60096801F00401F0
:100FF00000910099082101910321CDE9021601A970
:1010000000F082FC40F2CC0546F21040C2F200052E
:10101000C4F202004FF48061C5E9000605F110003A
:101020004FF400624FF400534FF4807C80E80E10C0
:101030002846C5E90266C5E9086600F063FB00289A
:1010400018BFFFF78BFD122000210022A563AC63BF
:1010500000F0B2FD122000F09BFD06B070BD000054
:10106000B0B582B004460020019094F83C000128FD
:1010700002D1022002B0B0BD94460A460120216888
:1010800084F83C008868C00729D188684DF68365DC
:1010900040F00100886040F21800C2F200000068D1
:1010A000C4F21B35A0FB0505A80C00EB4000019025
:1010B0000198A0B1019801380190019878B1019888
:1010C00001380190019850B10198013801900198C0
:1010D00028B101980138019001980028EAD1886868
:1010E000C00503D5886820F4807088608D68206C06
:1010F000ED0709D140F010002064606C40F0010061
:101100006064002072E000BF40F20175A84300F562
:10111000807020644868400504D5206C012565F383
:101120000D302064256C0020ED044FF0000544BF15
:10113000656C25F00605656484F83C00A06B40F6FC
:10114000392540F6BD23C0F60005C0F60003C0E90E
:101150000F5340F6A923C0F60003C3646FF02203C7
:101160000B604B6842F2080543F080634B608B686C
:10117000C4F2010543F480738B604C31634600F088
:1011800073FBD5F8FC222168D2060DD0A5F1080228
:1011900091422BD1296811F0405F27D1296841F095
:1011A0008041296002B0B0BD42F20002C4F20102E7
:1011B000914217D042F20022C4F2010291420DD0B6
:1011C00042F20012C4F2010291420FD1D5F8FC2282
:1011D000D20607D005F5FC72914207D1D5F8FC2262
:1011E000D20603D48A6812F0405F01D002B0B0BDCD
:1011F0008A6842F080428A6002B0B0BD7047000049
:10120000704700007047000010B500284FF0010340
:1012100018BF002902D1184610BD00BF4379012B29
:101220004FF00203F7D00371036802F0100ED3F8F9
:1012300000C0D1E9004140F6FE7202FA0EF22143ED
:101240002CEA020201FA0EF111431960C0211A685A
:1012500001FA0EF122EA0101196001210023017156
:101260004371184610BD0000704700007047000031
:1012700070470000002804BF0120704710B50446E5
:10128000007920B900206071204600F007F80220A4
:101290002071002001212061217110BD2DE9F04F46
:1012A00087B0044647F200402168C4F200000026DF
:1012B00081420696059603D007B0BDE8F08F00BFC7
:1012C00043F630010196C4F202010A6946F2880928
:1012D00042F000520A610A6900F5C63002F000527D
:1012E0000192019A01960A68C4F2020942F00102D1
:1012F0000A60096801F00101019101993021029110
:101300000321CDE9031602A900F0FEFA40F22C15E4
:10131000C2F200054FF400504FF4807B4FF060683C
:101320004FF0400A05F10C01C5E9060B2846C5F847
:1013300000904FF400694FF48067C5E9018A81E8A5
:10134000C002C5E9086600F0DDF9002818BFFFF704
:1013500005FC46F28800A560AC63C4F2020040F2CE
:101360008C151830C2F20005002185E8010505F151
:101370000C0080E882024FF40050C5E9060B2846B5
:10138000C5E9081100F0BEF9002818BFFFF7E6FB19
:10139000E560AC6307B0BDE8F08F000070B568B3DE
:1013A0000446407901284FF0020008BF70BD0D4689
:1013B000DDF810C00121617120710DB3E06840F6C5
:1013C000E52640F62D3EC0F60006C0F6000EC0E948
:1013D0000F6E40F60D362168C0F60006C6640E6832
:1013E000BCF1040F46F080560E602BD0BCF1000F0C
:1013F00014BF01F11C0C01F1140C25E0012070BD9B
:10140000A06840F6D52E40F62536C0F6000EC0F690
:101410000006C0E90FE640F6F5262168C0F6000692
:10142000C6640E68BCF1040F46F480560E6029D0E5
:10143000BCF1000F14BF01F1100C01F1080C4FF4C6
:10144000005E03E001F1180C4FF0005E0E6846EA02
:101450000E060E601146624600F006FA0021617128
:1014600030B104F1100104220B681A430A6070BD08
:1014700005F010020123216803FA02F20B681A43F7
:101480000A6070BD01F10C0C4FF4005EDEE7000055
:1014900070B5866D044600F00BFB94F835100229F8
:1014A00028D105462068216C026822F016020260ED
:1014B000426922F08002426109B9A16C19B1016848
:1014C00021F008010160016821F00101016000BF05
:1014D00020680068C00715D000F0EAFA401B062813
:1014E000F6D320206065032084F83500002184F8BD
:1014F000341070BD802060650120002184F8341014
:1015000070BD00BFE06D3F2101FA00F0B060012026
:1015100084F835000020002184F8341070BD0000EC
:1015200090F83510022909D1052180F8351000689E
:10153000016821F0010101600020704780214165B0
:1015400001207047F0B581B004460020009040F2C1
:101550001800C2F200000268D4E9166048F2B51320
:1015600037680821C1F64E3381403942A2FB03257A
:101570000CD0226813685B0708D5136823F00403B6
:101580001360B160616D41F001016165012181402D
:10159000394208D022685269120604D5B160616DE3
:1015A00041F00201616504218140394208D022687E
:1015B0001268920704D5B160616D41F00401616564
:1015C00010218140394217D020680268120713D5D4
:1015D000B16002680168520308D4C90508D40168E3
:1015E00021F008010160216C21B905E008033FD416
:1015F000216C09B120468847E16D202000FA01F2F4
:101600003A4241D020680368DB063DD5B26094F8C9
:1016100035300268052B1BD122F0160202604269A8
:1016200022F080024261226C0AB9A26C1AB10268EF
:1016300022F0080202603F208840B060012084F858
:101640003500216D0020002984F8340052D157E084
:101650000168520310D4C90512D4016821F01001A9
:101660000160012084F83500002084F8340007E090
:10167000A16C0029BED1BFE7080301D4616C00E072
:10168000E16B09B120468847606DC8B3606DC00743
:101690002ED0052084F835002068A90A026822F0BF
:1016A00001020260009A01328A4200921AD802684E
:1016B000D20717D0009A01328A42009212D80268EB
:1016C000D2070FD0009A01328A4200920AD80268EB
:1016D000D20707D0009A01328A42009202D80268EB
:1016E000D207DFD1012084F83500002084F83400CF
:1016F000E16C29B1204601B0BDE8F040084700BFC9
:1017000001B0F0BD2DE9F041044600F0D1F9ECB193
:101710000546022084F835000020216884F8340052
:10172000086820F00100086021680868C00711D02F
:1017300000F0BEF9401B0528F6D90325202303201D
:10174000636584F83550BDE8F08100BF0120BDE835
:10175000F08100BF086848F23F02CFF21002D4E9DE
:10176000013500EA020C04F10C0898E8C10143EAD3
:101770000C032B431843D4E9072E3043384310435E
:10178000626A40EA0E00042A40EA08031CD1206B7A
:10179000D4E90A2E40EA0E00184308604869BEF1F9
:1017A000000F20F0030040EA020040F0040C11D0CA
:1017B000B8F5005F36D0B8F1000F45D1022A46D007
:1017C000012A3BD032B942E00B60486920F00700A3
:1017D00040EA020C01F0F8004AF6AB221038CAF6D3
:1017E000AA22A0FB02231A0945F2C443C0F6000353
:1017F0009A5C40F2FF335F284FF03F00C1F814C0FD
:1018000021EA030100FA02F088BF0431C4E916128C
:101810008860002301250020636584F83550BDE809
:10182000F08100BF032AD5D8012540230120DFE83D
:1018300002F0030E030500BF82E700BFAEF1C070E7
:10184000B0FA80F0400904E0032A04D3C2D1CEF3F9
:1018500000600028BED0012540230120636584F884
:101860003550BDE8F081000070B590F834C0BCF18F
:10187000010F46D04FF0010C80F834C0D0F858E08A
:1018800090F835C0BCF1010F38D14FF0020C80F850
:1018900035C04FF0000CC0F854C0D0F800C08468C8
:1018A000056CC06DDCF80060402C26F48026CCF876
:1018B0000060CCF804300B4604BF13460A463F21B3
:1018C00001FA00F0CCF80830CCF80C20CEF8080073
:1018D000DCF8000040F01600CCF800002DB1DCF878
:1018E000000040F00800CCF80000DCF8000040F0F8
:1018F0000100CCF80000002070BD00BF002180F87E
:101900003410022070BD00002DE9F04F82B000F1CC
:101910003E4242F2004502F1FF77C4F202050A227C
:1019200043F6004E4FEAB726A84208BF0922C4F288
:10193000010E092E38BF4FEAB722012500260027E5
:101940004FF00008009208E008F101080437B8F1F0
:10195000100F06F1020600F0A7800C6805FA08F9DE
:1019600014EA090FF0D0D1F804B003220BF0030CF5
:10197000ACF10104B240012C6FEA020A10D882686F
:10198000CC6802EA0A02B440224382604268CBF388
:10199000001422EA090204FA08F42243426005E036
:1019A000BCF1030F02D14FF0030C20E0C2688C6839
:1019B00002EA0A02B4402243BCF1020FC26016D10F
:1019C0006FF0030202EA58020244D2F820C007F086
:1019D0001C050F230C69AB402CEA030304FA05F540
:1019E0002B431362D1F804B001250BF0030C0268FD
:1019F0000CFA06F302EA0A021A431BF4403F0260A3
:101A0000A2D0002243F644030192C4F202031A68F2
:101A10004FF6084C42F480421A601A68CFF6FF7CF9
:101A200002F480420192019A28F00302724452F8B3
:101A30000C3007F00C050F24AC40A343009C04FAC3
:101A400005F52B4342F80C30DEF808204B6842EADB
:101A5000090543F60C4CDC0258BF22EA0905CEF812
:101A60000850C4F2010CDCF800209C0242EA09058F
:101A700058BF22EA0905CCF80050DEF804209C0388
:101A800042EA090558BF22EA0905CEF80450DEF8FB
:101A90000020DB0342EA090558BF22EA0905CEF817
:101AA0000050012550E700BF02B0BDE8F08F0000F4
:101AB00041F62C20C2F201000068704740F210008D
:101AC00041F62C21C2F20000C2F2010100780A683E
:101AD000104408607047000080B543F60040C4F22F
:101AE0000200016841F400710160016841F4806105
:101AF0000160016841F480710160032000F088F802
:101B00000F2000F005F800F027F8002080BD00004D
:101B100070B540F21006C2F2000640F218013278A9
:101B2000C2F200014FF47A730968B3FBF2F2044683
:101B3000B1FBF2F1084600F043FB0F2C4FF001051A
:101B400008D838B94FF0FF3021460022002500F0B8
:101B500033F87460284670BD82B0002043F640011F
:101B60000190C4F202014A6842F480424A604A6825
:101B700002F480420192019A0090086840F080507F
:101B80000860086800F080500090009802B070472C
:101B9000002848BF7047C1B200F01F00012202FABE
:101BA00000F04EF20012CEF2000242EAD10121F022
:101BB000030108607047000010B54EF60C5CCEF2D1
:101BC000000CDCF80030C3F3022E8EF00704042C66
:101BD00028BF0424BEF103034FF0FF3E0EFA04F4C5
:101BE00038BF0023A14399400EFA03F39A431143EF
:101BF00000F00F0200F160430901043A03F5644369
:101C00006244002848BF02F10C03197010BD0000A7
:101C10004EF60C51CEF200010A684FF6FF031A404F
:101C200060F30A2242F0806040F0FD700860704767
:101C30002DE9F041002800F08B8043F60808C4F23B
:101C400002080446D8F8F8030D4600F00F00884259
:101C500007D288F8F853D8F8F80300F00F00A8422C
:101C600076D12068810717D5410705D5D8F800102F
:101C700041F4E051C8F80010010705D5D8F800106C
:101C800041F46041C8F80010D8F80010A26821F0B3
:101C9000F0011143C8F80010C0073FD1D8F8F8038D
:101CA00000F00F00A84207D988F8F853D8F8F803D5
:101CB00000F00F00A8424BD12068410707D5D8F8A3
:101CC0000010E26821F4E0511143C8F80010000749
:101CD00008D5D8F80000216920F4604040EAC1002E
:101CE000C8F8000000F07CF8D8F8001045F2AC42CB
:101CF000C1F30311C0F60002515C40F2180220FA51
:101D000001F140F21400C2F200000068C2F20002C9
:101D10001160FFF7FDFE0020BDE8F0816068811EC4
:101D2000022907D258F8081C89015CBF0120BDE8D0
:101D3000F08111E0012807D158F8081C89035CBF25
:101D40000120BDE8F08107E058F8081C890703D49A
:101D50000120BDE8F08100BFD8F8001021F0030198
:101D60000843C8F80000FFF7A3FE064641F2883793
:101D7000D8F80000616800F00C00B0EB810F8DD046
:101D8000FFF796FE801BB842F2D90320BDE8F08130
:101D900040F2180043F60801C2F20000C4F202014A
:101DA0000068096845F2BC42C1F38221C0F6000216
:101DB000515CC8407047000040F2180043F608012B
:101DC000C2F20000C4F202010068096845F2BC4298
:101DD000C1F34231C0F60002515CC84070470000B8
:101DE00010B543F60404C4F20204606800F00C006D
:101DF00008280BD0042819BF42F20040C0F2F400BA
:101E000047F64000C0F27D1010BD00BF2068216879
:101E10002368490247F64001C0F27D1100F03F02FD
:101E2000C3F388105CBF42F20041C0F2F401A1FB91
:101E300000010023FEF7D6F921680222C1F3014117
:101E400002EB4101B0FBF1F010BD00002DE9F041C3
:101E500082B0002868D00446007843F60006C00728
:101E6000C4F202060BD0B06800F00C00042840F069
:101E70009F803068800302D56068002854D02078A5
:101E800080071AD5B06810F00C0F09D0B06800F0C8
:101E90000C00082840F0A6807068400200F1A28083
:101EA0003068800702D5E06801283DD1306821699B
:101EB00020F0F80040EAC10030602078000737D4F5
:101EC000207840074CD4A56955B3B06800F00C00E9
:101ED000082840F0BB80012D26D07068E16900F42D
:101EE00080028A4220D1216A00F03F028A421BD13F
:101EF00047F6C071626A0140B1EB821F14D1A16A3A
:101F00004FF6FF73C903994300F44032A1F58031C5
:101F10008A4209D1E16A00F07060B0EB016F03D131
:101F2000002002B0BDE8F081012002B0BDE8F081E0
:101F30006069002840F20000C4F2472076D00121F9
:101F4000C0F8801EFFF7B4FD054600BF706F800724
:101F5000B6D4FFF7ADFD401B0228F7D9DDE000BF86
:101F6000306C10F080580AD100200190306C40F0A5
:101F700080503064306C00F080500190019847F23E
:101F80000007C4F200073868C00541D4386840F43F
:101F900080703860FFF78CFD054600BF3868C005CB
:101FA00036D4FFF785FD401B0228F7D9B5E000BF06
:101FB000B06800F00C00082803D1706840023FF5BB
:101FC00058AF6068B0F5803F07D0B0F5A02F40F063
:101FD0008D80306840F480203060306840F480307C
:101FE00030608DE0E068002852D00020C4F2472025
:101FF00001210160FFF75CFD054600BF30688007E6
:102000003FF554AFFFF754FD401B0228F6D984E09A
:10201000A068012805D005284ED1306F40F004009B
:102020003067306F40F0010030674FE00021C0F8AA
:10203000801EFFF73DFD0546706F80077FF540AFBE
:10204000FFF736FD401B0228F6D966E00027C4F2F0
:10205000472700203866FFF72BFD022D05460BD1E0
:10206000306880015ED5FFF723FD401B02284FF04A
:102070000300F5D955E700BF306880017FF550AF08
:10208000FFF716FD401B02284FF00300F4D948E784
:102090000020C4F2472000210160FFF709FD05463A
:1020A000306880077FF509AFFFF702FD401B02286B
:1020B0004FF00300F4D934E7316F002821F001011B
:1020C0003167316F21F0040131674DD0FFF7F0FC2B
:1020D000054641F2883700BF306F800756D4FFF7BE
:1020E000E7FC401BB842F7D917E000BF3168002871
:1020F00021F480313160316821F4802131604FD08A
:10210000FFF7D6FC054600BF306880033FF5B7AE49
:10211000FFF7CEFC401B6428F6D9032002B0BDE8CF
:10212000F08100BF04F11C052FCD084340EA821066
:10213000D9034FF6FF729143A1F5803140EA056063
:102140000843706001203866FFF7B2FC044600BF08
:10215000306880013FF5E4AEFFF7AAFC001B0228BF
:102160004FF00300F4D9DCE6FFF7A2FC054641F28C
:10217000883700BF306F800708D5FFF799FC401BF8
:10218000B8424FF00300F5D9CBE600BFB8F1000F1D
:102190007FF499AE306C20F08050306493E600BF3D
:1021A000FFF786FC054600BF306880037FF567AE09
:1021B000FFF77EFC401B64284FF00300F4D9B0E623
:1021C000411E0020B0EB116F1CBF012070474EF282
:1021D0001002CEF2000251604EF62351CEF2000101
:1021E000F0230B70072190601160704710B590F8D4
:1021F0003C20012A4FF0020251D080F83D200268B5
:10220000D2F804E0D2F808C00C682EF07003234323
:1022100041F2FF74C4F20004A24253600EDC40F2AB
:10222000FF73C4F200039A4216DCB2F1804F2BD048
:1022300040F20043C4F2000324E000BF40F2FF3349
:10224000C4F201039A4213DC41F60003C4F2000316
:102250009A4219D0002313E040F60003C4F20003B1
:102260009A4211D040F60043C4F200030AE000BFD6
:1022700044F20003C4F201039A4205D040F2004345
:10228000C4F201039A4204D149682CF08003194337
:1022900091600121002280F83D1080F83C2010461A
:1022A00010BD0000002804BF0120704710B504468F
:1022B00090F83D0028B9002084F83C00204600F04A
:1022C0001FF8022084F83D002068211D01F048F924
:1022D000012084F8460084F83E0084F83F0084F82A
:1022E000400084F8410084F8420084F8430084F8F8
:1022F000440084F8450084F83D00002010BD000033
:1023000081B00068B0F1804F02D001B0704700BFCB
:102310000020009043F64000C4F20200016841F042
:1023200001010160006800F001000090009801B018
:102330007047000080B590F83C20012A4FF002025F
:1023400000F0C28080F83D20D0F800C04FF67772D0
:10235000DCF8083023EA0202CCF808200B684F2B87
:1023600028DC1F2B44DD202B45D0302B43D0402BC5
:1023700040F0AC80D1F804E0C968DCF82030DCF82B
:10238000202022F00102CCF82020DCF8182022F0D6
:10239000F00242EA011123F00A0242EA0E02CCF8EE
:1023A0001810CCF82020DCF8081041F0470121F08B
:1023B000300180E06F2B27DDB3F5005F48D0B3F527
:1023C000805F7AD0702B40F08180D1E901E3C96849
:1023D000DCF8082043EA0E0322F47F4243EA01219D
:1023E0001143CCF80810DCF8081041F0770162E0E6
:1023F0000BB1102B6AD1DCF8081021F070011943E1
:1024000041F0070157E000BF502B35D0602B5DD164
:10241000D1F804E0C968DCF82030DCF8202022F094
:102420001002CCF82020DCF8182022F4704242EA96
:10243000013123F0A00242EA0E12CCF81810CCF8B9
:102440002020DCF8081041F0670121F0100132E093
:10245000D1E901E3C968DCF8082043EA0E0322F45D
:102460007F4243EA01211143CCF80810DCF8081040
:1024700041F480411FE000BFD1F804E0C968DCF8F6
:102480002030DCF8202022F00102CCF82020DCF8FB
:10249000182022F0F00242EA011123F00A0242EA77
:1024A0000E02CCF81810CCF82020DCF8081041F00F
:1024B000570121F02001CCF808100022012180F8FA
:1024C0003D10002180F83C10104680BD0122F5E748
:1024D0002DE9F04390F83C30012B04BF0220BDE809
:1024E000F0834FEAB202032A00F2FC80DFE802F038
:1024F000023E7EBE036840F200471C6A1A6A24F05E
:10250000020422F001021A621A46D3F804E052F8DB
:1025100018CF8E6843F48065C4F20107BD4244EAD7
:10252000060405D1CE6824F00C0426F004063443DA
:102530000E68BD4207D1D1E905572EF4407E45EA29
:102540000E0545EA070E2CF073073743C3F804E085
:102550009F614F6809695F631C629F6947F00807C4
:102560009F619F6927F004079F61B1E0036840F213
:1025700000481C6A1A6A24F0200422F010021A6231
:102580001A46D3F804C052F818EF8F6843F48065F8
:10259000C4F20108454544EA071407D1CF686FF03B
:1025A000400624F0C00406EA07163443D1F8009030
:1025B000454506D1D1E905562CF440672E4347EA3C
:1025C000860C2EF4E64747EA0927C3F804C09F614A
:1025D0004F6809699F631C629F6947F400679F61A8
:1025E0009F6927F480679F6171E000BF036840F234
:1025F00000481C6A1A6A24F4007422F480721A6279
:102600001A46D3F804C052F81CEF8F6843F4806573
:10261000C4F20108454544EA072408D1CF6840F2D6
:10262000FF463F0224F4406427EA06063443D1F80B
:102630000090454506D1D1E905562CF440572E436C
:1026400047EA061C2EF0730747EA0907C3F804C0DF
:10265000DF614F680969DF631C62DF6947F00807C3
:10266000DF61DF6927F00407DF6131E0036840F2D2
:102670000045D3F820C01A6A43F4806722F48052E0
:102680001A621A465C6852F81CEFD1F800808E6816
:10269000C4F20105AF4204D14D6924F4804444EAF8
:1026A00085142CF4005747EA06372EF4E64646EA2E
:1026B00008265C60DE614E6809691E641F62DF697E
:1026C00047F40067DF61DF6927F48067DF61090293
:1026D0001368194311600021002280F83C2008464D
:1026E000BDE8F0830121002280F83C200846BDE8C7
:1026F000F0830000002804BF0120704710B5044695
:1027000090F83D0028B9002084F83C00204600F0F5
:102710001FF8022084F83D002068211D00F020FFF2
:10272000012084F8460084F83E0084F83F0084F8D5
:10273000400084F8410084F8420084F8430084F8A3
:10274000440084F8450084F83D00002010BD0000DE
:102750007047000041B1082910D0042914BF00F1CE
:10276000410200F13F020BE090F83E20012A1CBF1D
:1027700001207047022280F83E2013E000F1400261
:102780001278012A1CBF012070470222082907D0B5
:10279000042914BF80F8412080F83F2002E000BFE8
:1027A00080F84020006801F01F010122036A02FA4C
:1027B00001F123EA01020262026A114341F2FF724F
:1027C000C4F20002904201620CDC40F2FF71C4F2DC
:1027D0000001884214DCB0F1804F37D040F2004154
:1027E00016E000BF40F2FF31C4F20101884215DC5F
:1027F00041F60001C4F20001884227D0002115E013
:1028000040F60001C4F2000188421FD040F60041AA
:10281000C4F20001884219D01FE000BF44F2000159
:10282000C4F20101884211D040F20041C4F201011A
:10283000884212D1416C40F2004340F48062C4F2FD
:10284000010341F400419A42416406D1816801F0DC
:102850000701062904BF00207047016841F001010B
:1028600001600020704700007047000070470000C2
:10287000B0B582B0044600680168C368426901F0DF
:102880002F05202D03F0200506D12DB1204602B0E2
:10289000BDE8B04000F00CBF5FEA017C1EBF02F053
:1028A000010E03F4907212EB0E0253D1226B012A37
:1028B00005D111F0100218BF13F0100236D10A062C
:1028C00022D513F080021FD094F8411021293FD166
:1028D000A168B1F5805F03D12169002900F08282EF
:1028E000216A4A1C226209784160E18C01390A049C
:1028F000E1842DD1C16821F08001C160C16841F03F
:102900004001C16002B0B0BD490621D513F04001BD
:102910001ED0C16821F04001C1602021204684F80A
:10292000411002B0BDE8B04000F06ABC0021019146
:10293000016801914168019101994069400613D4F1
:10294000A08DE18DE28D002A18BF884240F0CC8135
:1029500002B0B0BDCA0718BF13F4807240F0BE8049
:102960004A0700F1C180C6E0E06B01684A68A38DA8
:1029700091B2002900F0A881994280F0A581E285FA
:10298000C069B0F5807F00F09D80206850E8030F9B
:10299000216820F4807041E80302DAB1206850E831
:1029A000030F216820F4807041E8030292B120688F
:1029B00050E8030F216820F4807041E803024AB117
:1029C000206850E8030F216820F4807041E803027A
:1029D000002ADAD1206850E8050F216820F00100B4
:1029E00041E80502BAB3206850E8050F216820F0DD
:1029F000010041E8050272B3206850E8050F216824
:102A000020F0010041E805022AB3206850E8050FD4
:102A1000216820F0010041E80502002ADAD11AE01D
:102A2000206850E8050F216820F0400041E80502C9
:102A3000DAB1206850E8050F216820F0400041E835
:102A4000050292B1206850E8050F216820F040008F
:102A500041E805024AB1206850E8050F216820F0DE
:102A6000400041E80502002ADAD1202084F8420023
:102A700000202063206850E8030F216820F0100038
:102A800041E80302DAB1206850E8030F216820F022
:102A9000100041E8030292B1206850E8030F21685A
:102AA00020F0100041E803024AB1206850E8030F0B
:102AB000216820F0100041E80302002ADAD1E06B1F
:102AC000FEF7E6FC02206063A08DE18D401A81B222
:102AD000204602B0BDE8B040FFF7C6BE626C42F0CF
:102AE000010262644A0706D5BEF1000F03D0626C92
:102AF00042F0020262648A0706D5BEF1000F03D0DD
:102B0000626C42F004026264BCF1000F09D545EA30
:102B10000E02B2FA82F2520903D1626C42F008024C
:102B20006264626C002A3FF413AF11F0200118BFF9
:102B3000002D03D0204600F0BBFD20684069616C89
:102B400000F0400001F00801401800F0B58000BF1F
:102B5000206850E8030F216820F4907041E80302D8
:102B6000BAB3206850E8030F216820F4907041E860
:102B7000030272B3206850E8030F216820F49070BC
:102B800041E803022AB3206850E8030F216820F4CB
:102B9000907041E80302002ADAD11AE0206850E878
:102BA000050F216820F0010041E80502DAB1206834
:102BB00050E8050F216820F0010041E8050292B1BC
:102BC000206850E8050F216820F0010041E8050267
:102BD0004AB1206850E8050F216820F0010041E863
:102BE0000502002ADAD1206B012824D1206850E8A0
:102BF000030F216820F0100041E80302DAB12068D9
:102C000050E8030F216820F0100041E8030292B160
:102C1000206850E8030F216820F0100041E803020B
:102C20004AB1206850E8030F216820F0100041E805
:102C30000302002ADAD1202084F842000020206319
:102C400020684069400649D5206850E8050F216892
:102C500020F0400041E80502DAB1206850E8050F95
:102C6000216820F0400041E8050292B1206850E858
:102C7000050F216820F0400041E805024AB12068B4
:102C800050E8050F216820F0400041E80502002AC5
:102C9000DAD1E06B10B343F2A561C0F60001016523
:102CA000FEF73EFC00283FF453AEE06B016D02B02E
:102CB000BDE8B040084700BF2046FFF7D7FD002021
:102CC000606402B0B0BD00BF8B427FF441AEC0690A
:102CD000B0F5807F7FF43CAE02227CE0204602B05B
:102CE000BDE8B040FFF7C2BD401A216851E8031F9C
:102CF000226821F4907142E80313DBB1216851E8A6
:102D0000031F226821F4907142E8031393B12168F4
:102D100051E8031F226821F4907142E803134BB17C
:102D2000216851E8031F226821F4907142E80313DF
:102D3000002BDAD1216851E8051F226821F001013A
:102D400042E80513DBB1216851E8051F226821F034
:102D5000010142E8051393B1216851E8051F22687B
:102D600021F0010142E805134BB1216851E8051F2C
:102D7000226821F0010142E80513002BDAD120215D
:102D800084F8421000212163216851E8031F226862
:102D900021F0100142E80313DBB1216851E8031F61
:102DA000226821F0100142E8031393B1216851E831
:102DB000031F226821F0100142E803134BB1216880
:102DC00051E8031F226821F0100142E80313002B91
:102DD000DAD1022281B22046626302B0BDE8B0407F
:102DE000FFF742BD216A31F8022B6FF35F22426088
:102DF00021627AE5002804BF0120704710B504461F
:102E000090F8410028B9002084F84000204600F0E6
:102E100021F8242084F841002068C16821F4005181
:102E2000C160204600F0C4FC2068016921F4904193
:102E30000161416921F02A014161C16841F40051F9
:102E4000C16000202021606484F8411084F84210A1
:102E5000606310BD80B586B0016841F20000C4F225
:102E60000100814202D006B080BD00BF002143F6C0
:102E700030020191C4F20202536900F5704043F040
:102E800010035361536903F010030193019B0191F7
:102E9000136843F001031360126802F0010201920B
:102EA000019A4FF4C06201920222CDE9022103216E
:102EB00004910721059101A9FEF726FD2520002197
:102EC0000022FEF779FE2520FEF762FE06B080BDE7
:102ED00090F84230202B1CBF0220704700294FF091
:102EE000010318BF002A01D118467047002303636D
:102EF000816222218285C285436480F84210016983
:102F0000006819B1C16841F48071C1604169002352
:102F100041F001014161C16841F02001C1601846E2
:102F20007047000070B5006841F20001C4F2010171
:102F3000884218BF70BD40F22006C2F20006307809
:102F400041F6EC14C2F20104215C0D2901D00A29DA
:102F500016D10021215431702AA120461122FDF7FB
:102F600072F9C8B141F6EC15C2F201052AA1284652
:102F70000C22FDF768F908B32BA002F031FA36E015
:102F80000130C1B24029307031D30020307039A0F7
:102F900002F026FA2BE000BF04F11100FDF760F902
:102FA000014642F2107081421AD8727845F2CC4044
:102FB000C0F60000718001F02DFA18E005F10C0058
:102FC000FDF74EF90246013802280DD8718845F206
:102FD000CC40C0F60000727001F01CFA07E000BFA0
:102FE0001DA002F0FDF902E014A002F0F9F930781A
:102FF0000122211840F23420C2F20000BDE87040E6
:10300000FFF766BF5461726765742046726571751B
:10301000656E6379200000004F7574707574204DE3
:103020006F64652000000000556E6B6E6F776E2038
:10303000636F6D6D616E640D00000000496E766116
:103040006C6964204F7574707574204D6F646520D1
:1030500076616C75650D0000496E76616C6964205F
:103060006672657175656E63792076616C75650D44
:1030700000000000436F6D6D616E6420746F6F20FF
:103080006C6F6E670D0000002DE9F041044690F86A
:10309000410020281CBF0220BDE8F0810D46002918
:1030A0004FF0010000F0AA801646002A08BFBDE8D4
:1030B000F081002060642120984684F84100FEF7EA
:1030C000F7FCA684E684A1680646B1F5805F02D1CC
:1030D0002069002862D02F460025E08C002861D0AE
:1030E00018F1010018D0B8F1000F37D1216808E0BD
:1030F00017F8010B4860E08C0138E084E08C002870
:1031000051D00868000673D5002FF1D135F8020BB5
:1031100000276FF35F20EDE7216802E008680006F2
:1031200009D40868000606D4086800065CBF086871
:103130005FEA0060F2D51FB117F8010B05E000BF90
:1031400035F8020B00276FF35F204860E08C0138F0
:10315000E084E08C0028E4D125E000BF216800BFB6
:103160000868000608D4FEF7A3FC801B404541D840
:103170002168C868F4E700BF17B117F8010B04E035
:1031800035F8020B00276FF35F204860E08C0138B0
:10319000E084E08C0028E3D105E000BF0027E08C4C
:1031A00000289DD12168086840061FD4B8F1000F9F
:1031B0001ED018F101000FD10868400616D4086827
:1031C000400613D40868400610D4086840064FF043
:1031D0000000F1D50FE000BFFEF76AFC801B404500
:1031E00008D82068C16800684006F5D5002002E0D4
:1031F000FEF75EFC0320202184F84110BDE8F08139
:1032000070470000FEE70000B0B584B040F27000E7
:10321000C2F2000042F200014FF080534FF04075BF
:103220000024C4F20101C0E90A53012503944FF4BC
:103230008032047680F82040C56180F8305080E804
:103240001600C0E903444561FDF7F8FD002818BFEA
:10325000FDF784FC0D20CDE9000540F27000C2F2BC
:10326000000069460294FDF77FFC002818BFFDF7B7
:1032700075FC04B0B0BD000080B582B000200190A4
:103280002420009040F2B80047F20041C2F2000052
:10329000C4F200010160FDF7EDFF002818BFFDF743
:1032A0005DFC40F2B800C2F2000069460022FDF762
:1032B000ABFF002818BFFDF751FC40F2B800C2F286
:1032C000000069461022FDF79FFF002818BFFDF798
:1032D00045FC02B080BD000080B582B0002043F6FE
:1032E00030010190C4F202010A6842F480020A60CF
:1032F0000A6802F480020192019A00900868002294
:1033000040F4001008600868002100F400100090EC
:1033100000981020FEF750FC1020FEF739FC112019
:1033200000210022FEF748FC1120FEF731FC382076
:1033300000210022FEF740FC382002B0BDE88040AA
:10334000FEF726BC83B0002043F630010290C4F2A1
:1033500002010A6842F004020A600A6802F00402EC
:103360000292029A01900A6842F080020A600A689A
:1033700002F080020192019A0090086840F001007A
:103380000860086800F001000090009803B07047E2
:1033900010B58EB040F2EC100021C2F200004FF0E8
:1033A0008042532340F2E7340D91CDE90B1109918E
:1033B000CDE90711CDE90511CDE90311CDE90111E1
:1033C000C0E90023C0E9021401618161FEF76AFFD0
:1033D000002818BFFDF7C2FB4FF480500A9040F25E
:1033E000EC10C2F200000AA9FEF7A4FF002818BFE3
:1033F000FDF7B4FB40F2EC10C2F20000FFF77AF9DF
:10340000002818BFFDF7AAFB2020089040F2EC101E
:103410000024C2F2000008A90994FEF7E7FE002884
:1034200018BFFDF79BFB6020019040F2F310CDE93F
:10343000020440F2EC10C2F2000001A9042205943B
:10344000FFF746F8002818BFFDF788FB0EB010BD47
:1034500080B540F2342041F20001C2F20000C4F213
:10346000010100234FF00C0C4FF4E13280E80E0014
:10347000C0E90333C0E905C3C361FFF7BBFC002803
:1034800008BF80BDBDE88040FDF768BBFEE70000D7
:10349000FEE700007047000070470000FEF70EBB1B
:1034A000B0B592B0002443F64000CDE90A44CDE91E
:1034B00008440594CDE90344CDE901440094C4F2E5
:1034C00002000168022541F080510160006800F0AF
:1034D00080500090009847F200000094C4F2000071
:1034E000016841F440410160006800F440400090F0
:1034F0000098012006904FF4803007904FF4800030
:103500000D9019200E904FF4A870CDE90F050420FE
:10351000119006A80C95FEF799FC18B172B600BF81
:10352000FEE700BF0F20CDE901054FF4A050049045
:103530004FF48050059001A805210394FEF778FB15
:1035400010B172B6FEE700BF12B0B0BD4EF68850A3
:10355000CEF20000016841F4700101607047000084
:10356000B0B540F6FF3E0568C4F2000E40F2004CD4
:103570007045C4F2010C27DCB0F1804F31D040F22D
:103580000043C4F2000398422BD040F60003C4F27B
:103590000003984225D041F6FF73C4F2000398421D
:1035A0002ADC70453CDCB0F1804F5FD040F2004334
:1035B000C4F20003984259D040F60003C4F200035D
:1035C000984253D057E000BF40F60043C4F20003D6
:1035D000984206D0604504D00023C4F2010398420B
:1035E000D9D14B6825F0700243EA020541F6FF731A
:1035F000C4F200039842D4DD43F6FF73C4F2010322
:10360000984221DC42F20003C4F2000398422DD01C
:103610000023C4F20103984228D0604526D02AE056
:1036200040F60043C4F2000398421FD041F6000365
:10363000C4F20003984219D041F60043C4F20003DB
:10364000984213D017E000BF44F20003C4F2010314
:1036500098420BD044F60003C4F20103984205D00F
:1036600044F20043C4F20103984204D1CB6825F42C
:10367000407243EA02050A688C684B69C46240F4F0
:1036800080648262644504BF09690163026825F0B1
:10369000800142F00402194302600122426101608C
:1036A000B0BD0000806B0021C185FFF7DFB80000CE
:1036B00081B090F84210222921D183680246B3F5E7
:1036C000805F09D152F8281F52F8183C002B63D0B4
:1036D00003685B680AE000BF52F8281F13B903694A
:1036E000002BF5D003685B6803F07F030B70116853
:1036F00001311160C18D01390A04C18502D001B0C8
:10370000704700BF0168CA6822F02002CA60CA6818
:1037100022F48072CA604A6922F001024A612021C3
:1037200080F8421000214163026B012A3CD1016301
:10373000016851E8031F026821F0100142E80313F9
:10374000DBB1016851E8031F026821F0100142E873
:10375000031393B1016851E8031F026821F01001BF
:1037600042E803134BB1016851E8031F026821F0DE
:10377000100142E80313002BDAD101680A68D2066F
:1037800006D5002200920A680092496800910099CB
:10379000818D01B0FFF768B8026852686FF35F224D
:1037A00021F8022B8162A5E701B0FFF7BBBB000047
:1037B00010B504460068D4E902C22369016921F406
:1037C000405111430161626943EA0C01E36911430D
:1037D000C268194349F20C639A431143C1604169BD
:1037E000A26921F4407141F20043114340F4806228
:1037F000C4F201039A42416102D1FEF7DDFA01E011
:10380000FEF7C6FAE16963681922B1F5004FA0FB23
:10381000020123D15A00DB0FFCF7E4FC48F21F51F0
:10382000C5F2EB11A0FB01235A094FF69C73C0F6B9
:10383000FF7303F1805302FB0300322303EBC0004C
:10384000A0FB01014FF4F87000EA111000EB021028
:10385000C1F3421108442168886010BD9A009B0F93
:10386000FCF7C0FC48F21F51C5F2EB11A0FB01238D
:103870005A094FF69C73C0F6FF7302FB0300322314
:1038800003EB0010A0FB0101F02000EA511000EB57
:103890000210C1F3431108442168886010BD000084
:1038A00040F23420C2F20000FEF7E2BFFEE7000063
:1038B00070B52DED108B88B040F22006C2F20006E4
:1038C000F069DFEDBC9A01EE100AB8EEC11A81EE84
:1038D000291A96ED062A9FEDB83A0130F06131EED3
:1038E000422AB4EE432AF1EE10FA0DDA0020C6E9BE
:1038F0000800C6E90A00C6E90C00C6E90E0008B0D7
:10390000BDEC108B70BD00BF306BC7280ADC96ED94
:10391000082A013032EE002A716B86ED082A3063E6
:1039200023E000BF716BC72908DC96ED092A01313D
:1039300032EE002A86ED092A716316E0B26BC72ABF
:1039400008DC96ED0A2A013232EE002A86ED0A2AB8
:10395000B2630AE0F26BC72A07DC96ED0B2A01324C
:1039600032EE002A86ED0B2AF263C82808BFC82968
:1039700006D0002086ED050A08B0BDEC108B70BDA6
:10398000B06BC828F5D1F06BC828F2D196ED084A83
:1039900096ED092A9FED895A96ED0A3AC4EE058AFA
:1039A00082EE05FA83EE05EA96ED0B4A9FED856AF5
:1039B00084EE05DA9FED825ADFED840A3FEE68AAB5
:1039C0003AEE057AB4EE46AAF1EE10FAC8BFB0EEB0
:1039D00047AA9FED7D7A3EEE4F9AB4EE60AA7AEE4A
:1039E000071AF1EE10FAB4EE469AB8BFB0EE61AA2B
:1039F00079EE051AF1EE10FAC8BFB0EE619AB4EE96
:103A0000609A3DEE4ECAF1EE10FAB4EE46CA3CEEB4
:103A1000055A79EE071AB8BFB0EE619AF1EE10FAC6
:103A2000C8BFB0EE45CA3CEE075AB4EE60CAF1EE2C
:103A300010FAB8BFB0EE45CA9FED655AB0EECA6A3B
:103A4000B4EE456AF1EE10FA40F3A680B0EEC96A12
:103A5000B4EE456AF1EE10FA40F39E80B0EECC6A07
:103A6000B4EE456AF1EE10FA40F396809FED590AE4
:103A700011EE100A8CEE00BAFCF7CEFD044618EEEB
:103A8000900A0D46FCF7C8FD41EC180B1FEE100A1A
:103A9000FCF7C2FD41EC1F0B1EEE100AFCF7BCFD4B
:103AA00041EC1E0B1DEE100AFCF7B6FD41EC100BAD
:103AB00045F26550C0F6000022462B468DED008B86
:103AC0008DED02FB8DED04EB8DED060B00F0A2FCFD
:103AD0001AEE100AFCF7A0FD044619EE100A0D4676
:103AE000FCF79AFD41EC180B1CEE100AFCF794FD54
:103AF00041EC1A0B1BEE100AFCF78EFD41EC100B8B
:103B000045F21050C0F6000022462B468DED008B8A
:103B10008DED02AB8DED040B00F07CFCB7EE000ADE
:103B200040F20804B4EE40BAC2F20004F1EE10FA1A
:103B3000C8BFB0EE40BABFEE000A94ED011AB4EE71
:103B400040BAF1EE10FAB8BFB0EE40BA3BEE018ACF
:103B500018EE100AFCF760FD02461FA00B4600F0AD
:103B600059FC96ED070A0020B8EEC00A80EE290A3B
:103B700084ED018AC6E91200C6E90800C6E90A0018
:103B8000C6E90C00C6E90E00012086ED060A08B061
:103B9000BDEC108B70BD00BF0020C82186ED082A47
:103BA00086ED093A86ED0A4AC6E90B01C6E90D1110
:103BB000F063DEE600007A44CDCC4C3F0000484381
:103BC0000000B4C3000034430000B443000034C319
:103BD0006F12033B000090C26E65775F667265717D
:103BE0003A20252E36660A0080B582B0019040F258
:103BF0003420C2F2000001A901224FF6FF73FFF743
:103C000043FA019802B080BD88B0FDF765FFFFF769
:103C100047FCFFF797FBFFF75FFBFFF7F5FAFFF7AE
:103C200017FCFFF7B5FBFFF727FB0FF25C7001F005
:103C3000D7FB40F27C2640F27000C2F20006C2F2CE
:103C4000000031464FF47A72FDF70AFA40F2EC10A8
:103C5000C2F200000421FEF77DFD40F2B804C2F27A
:103C6000000400252046002132464FF47A73009567
:103C7000FDF794FB41F21C22C2F200022046102103
:103C80004FF47A730095FDF789FB40F22007C2F2EA
:103C90000007387841F6EC11C2F20101014440F20C
:103CA0003420C2F200000122FFF712F9786CB0F55F
:103CB000FA7F01DBFEE700BF9FED6B0B9FED6C1BF6
:103CC00040F2080A9FED6CCADFED6CAA9FED6CEA2A
:103CD0009FED6CFA9FED6C8ADFED6C9ADFED6CBAAC
:103CE000DFED6CCAC2F2000A56EC108B52EC111BCD
:103CF000CDE9062105960FE03C6C786C611C421CF6
:103D000045F2FB40C0F6000039647A6400F082FBA3
:103D1000786CB0F5FA7FCDDA9AF80110002804BF6C
:103D2000C1F101018AF801100906386C40F27C21CA
:103D300018BF00F5FA70C2F2000131F81000FCF76C
:103D40003FFC42463346C146FCF73EFBDDE9063206
:103D5000FCF7ACFBFCF773FC9AED010A97ED121B24
:103D600080EE0C0A58EC11BB564682465846414636
:103D700020EE2ADAFCF763FC09EE100AB0EE490ADD
:103D800000F06EFDBCEEC0AA1AEE100A41F6EC136C
:103D9000411C6FF35F30C2F200036FF35F3103EB3E
:103DA000800292ED00BA03EB8102D2ED00EA49F6FF
:103DB000EC12C2F2000202EB8000D0ED00DA02EB5E
:103DC0008100D0ED008A1DEE100AFCF725FC0246AA
:103DD0000B4658464146FCF750FA41EC100B04469E
:103DE00087ED120B9FEDE60B0D4653EC102BFCF705
:103DF000CCFB88B920462946FCF721FC00EE100ACE
:103E0000F0EE6A0A00F064FD10EE100AFCF704FC04
:103E100041EC100B87ED120BB8EE4A0A39EE400A5E
:103E20003EEECB1A20EE011A71EE0BFA38EEED1AC7
:103E3000F868D7E901120DEE10AA20EE010A70EE23
:103E40002DEA2FEE8D0A01EB80032EEE8D1A83ED05
:103E5000000A02EB8003C72883ED001A1CDB012354
:103E60003B611DE000BF00BF6666666666660A408D
:103E70000000000000FEAF4000007A440000004651
:103E8000000000000000484300003443DB0F4940BD
:103E9000000034C300F07F453B69002B00F0A28195
:103EA000B246059E0023B0EE4E1AB0EE4E0AC8464A
:103EB000CD1895ED002A95ED013AD41895ED024AFA
:103EC00031EE021A94ED002A95ED035A31EE031AF1
:103ED00094ED016A30EE020A31EE041A95ED042ADF
:103EE00094ED027A31EE051AD4ED030A30EE060A9B
:103EF00031EE021A95ED052A30EE070A94ED043AE8
:103F000030EE200A31EE021A95ED062A30EE030A51
:103F100094ED053A31EE021A95ED072A30EE030AC8
:103F200094ED063A31EE021A95ED082A30EE030AB6
:103F300094ED073A31EE021A95ED092A30EE030AA4
:103F400094ED083A31EE021A95ED0A2A30EE030A92
:103F500094ED093A31EE021A95ED0B2A30EE030A80
:103F600094ED0A3A31EE021A95ED0C2A30EE030A6E
:103F700094ED0B3A31EE021A95ED0D2A30EE030A5C
:103F800094ED0C3A31EE021A95ED0E2A30EE030A4A
:103F900094ED0D3A31EE021A95ED0F2A30EE030A38
:103FA00094ED0E3A31EE021A95ED102A30EE030A26
:103FB00094ED0F3A31EE021A94ED102A30EE030A16
:103FC00095ED113A94ED116A95ED124A94ED127A3D
:103FD00030EE020A95ED135AD4ED130A31EE031AAE
:103FE00030EE060A31EE041A30EE070A503331EE95
:103FF000051AB3F5487F30EE200A7FF459AF81EE01
:104000000FAA80EE0FBA48F21F510130C5F2EB1132
:1040100050FB01F18A1102EBD171C82201FB1200A1
:10402000F860F0EE4A0AB0EE4B0A00F01BFA20EE00
:10403000080A80EE299AB0EE490AFFF739FCC0B1B0
:1040400097ED100AB8EEC00A80EE0C0A10EE100AC6
:10405000FCF7E2FA0446DAF804000D46FCF7DCFA55
:1040600041EC100BCFA022462B468DED000B00F04B
:10407000D1F997ED102A2BEE0B0A2AEE0A1A31EE2F
:10408000000AB8EEC21A81EE0C1A29EE292A82EE35
:104090002B2AB1EEC03A9AED010A9FEDCF4A20EEED
:1040A000040A20EE010A30EE020A33EE03BA00F0F1
:1040B0002FFB386C4BF6500145F62942C0F21E51D9
:1040C000CCF28F2200FB021045F628414FEAB000E7
:1040D000C0F28F218842B0EE40AA0FD99AF80000B2
:1040E0002BEE0A9A01282ED002284DD003287FF407
:1040F00003AE9AF801502FEEAC0A28E0DAF804007B
:10410000FCF78AFA04461BEE100A0D46FCF784FA07
:10411000F0EE48DA41EC180B19EE100AFCF77CFAC5
:1041200041EC100BADA022462B468DED008BB0EE7E
:104130006D8A8DED020B00F06DF99AF800002BEE00
:104140000A9A0128D0D19AF801502DEE2C0A10EECF
:10415000100AFCF761FA42463346FCF7A7F9FCF770
:104160003CFA3C6C002D00F0EB8040F64C2104F54D
:10417000FA75C2F2000129EE2C0A21F815001FE0A1
:10418000000000000000C0402FEEAC0A9AF8015079
:1041900010EE100AFCF740FA42463346FCF786F967
:1041A000FCF71BFA3C6C002D00F0D48040F64C214B
:1041B00004F5FA75C2F2000121F815002EEEAC0AE2
:1041C00010EE100AFCF728FA42463346FCF76EF967
:1041D000FCF703FA41F21C21C2F2000121F815009C
:1041E0008BE500BFB246059E0023B0EE4E1AB0EE3E
:1041F0004E0A0025C84605E00135C82D03F1280305
:104200003FF4FDAE85421BDD854225DB023585424C
:104210002FDD0135854239DD0135854243DD01352C
:1042200085424DDD0135854257DD0135854261DD31
:10423000013585426BDD01358542DDDC75E000BF6F
:10424000CC1894ED002AD41894ED003A31EE021AFD
:1042500030EE030A8542D9DACC1894ED012AD4183D
:1042600094ED013A31EE021A30EE030A023585422E
:10427000CFDCCC1894ED022AD41894ED023A31EE3A
:10428000021A30EE030A01358542C5DCCC1894EDE4
:10429000032AD41894ED033A31EE021A30EE030AE1
:1042A00001358542BBDCCC1894ED042AD41894ED7A
:1042B000043A31EE021A30EE030A01358542B1DCD0
:1042C000CC1894ED052AD41894ED053A31EE021A73
:1042D00030EE030A01358542A7DCCC1894ED062A9E
:1042E000D41894ED063A31EE021A30EE030A013585
:1042F00085429DDCCC1894ED072AD41894ED073A3A
:1043000031EE021A30EE030A0135854293DCCC18F7
:1043100094ED082AD41894ED083A31EE021A30EEE2
:10432000030A013585423FF767AFCC1894ED092A9F
:10433000D41894ED093A31EE021A30EE030A5BE725
:1043400040F64C21C2F2000129EE2C0A21F814009B
:1043500008E000BF40F64C21C2F2000121F8140031
:104360002EEEAC0A10EE100AFCF756F94246334620
:10437000FCF79CF8FCF731F941F21C21C2F2000174
:1043800021F81400B9E400BF5068617365204C6FD8
:10439000636B656420416D706C69666965722E0D92
:1043A00000000000E697B6E997B43A20252E326661
:1043B00020732C20E58F82E88083E9A291E78E8725
:1043C000E5B7B2E8B083E695B4E887B33A20252E86
:1043D000336620487A0A0000DB0FC94046726571D7
:1043E00075656E63793A20252E326620487A2C2036
:1043F000416D706C69747564653A20252E346620B1
:10440000562C2050686173653A20252E3266206450
:1044100065670A000FB4054B10B503A9044A02985A
:1044200000F046FC10BC5DF814FB0000E93B0008FE
:10443000000000204100080218BF04200A0E18BF27
:1044400040F001004FF07F4232EA010108BF40F026
:104450000200012808BF052070470000004870478F
:104460000400002070B54FF068422DED048BF0EE93
:10447000408A18EE900AB0EE608A18EE101A02EB2D
:104480004003B3F1654F3CBF02EB4102B2F1654F0F
:104490007DD200BFC0F3C753C1F3C7529A1A1B2A7B
:1044A00009DD10F0004F14BF9FED830A9FED830AD2
:1044B000BDEC048B70BD12F11A0F36DA11F0004F0B
:1044C00009D010F0004F0CBF9FED7D0A9FED7D0AD3
:1044D000BDEC048B70BD88EE889A19EE100AFFF7C8
:1044E000A9FF042808BF00F059FA18EE900AFFF758
:1044F000A1FF054618EE100AFFF79CFF044619EECF
:10450000100AFFF797FF042D18BF052D08D1042CC2
:1045100018BF052C04D1002804BF022000F000FBC6
:10452000B0EE490ABDEC048B70BD4200B2EB410F06
:104530003AD910F0004F19BFDFED630A9FED630A0F
:10454000DFED630A9FED630AB0EE481A0A46B1EE4A
:10455000688A80F00041F0EE418A10460A1A520043
:10456000B2F1807F34D2484010F0004FDFED5A1A8C
:104570009FED5A2A1DBFBEEE001A70EEE10A30EE22
:10458000420AB6EE001A08BF70EEA10A00E040E051
:1045900008BF30EE020AB0EE682A01EE482A08EEA3
:1045A000818AC2EE081A15E011F0004F04BF9FED9A
:1045B0004C0AF0EE400AD1D010F0004F19BFDFEDE9
:1045C000490A9FED490ADFED490A9FED490AC5E70F
:1045D000C8EE881A21EEA11A9FED462ADFED462A81
:1045E00041EE022A9FED452A01EE222ADFED442A00
:1045F00041EE022A9FED432ABDEC048B01EE222AF4
:1046000021EE811A01EE020A30EE210A30EE200A74
:1046100070BD4FF07F42B2EB400F28BFB2EB410FAD
:1046200009D2F0EE480AB0EE680ABDEC048BBDE892
:10463000704000F0A8B940EA01035B0008BF41F0F8
:10464000FF410BD0B2EB400F08BFB2EB410F08D1D6
:1046500020F0804008EE900A21F0804108EE101A08
:1046600018E7B2EB400F12BF5FEA410340F0FF4092
:1046700001F000413FF40EAFB2EB410F12BF5FEA11
:10468000400200F0004041F0FF413FF403AF4A0018
:1046900092EA40033FF5FEAE002AACBF9FED1A0A36
:1046A0009FED1A0A68EE808A28EE008A18EE900ABA
:1046B00018EE101AEEE60000DB0FC9BFDB0FC93F92
:1046C000DB0F4940DB0F49C00000C9BF22AAFDB97A
:1046D0000000C93F22AAFD390060ED3EC30ACE3773
:1046E00000000000000049C022AA7DBA0000494035
:1046F00022AA7D3A2DAD65BD8FB8D53D0FB511BE4F
:1047000061C84C3EA8AAAABE0000804F0000802FBE
:1047100010EE101A08B5444A6846B2EB410F28D98A
:104720004FF0E640B0EB410F94BF00204FF0FF3058
:1047300000900098002861DB60EE000A10F0010F85
:1047400045D010F0020FDFED391A9FED391A00EE57
:10475000A11ADFED381A40EE811A21EEA01AF0EE10
:10476000400A40EE010A08BFF1EE600AB0EE600AAE
:1047700008BD314B21F0004293423CD911F0004F6B
:10478000DFED2E0A20EE201ADFED2D0A19BF31EEE3
:10479000601A71EE200A31EE201A71EE600ABDEE49
:1047A000E01A11EE100A9FED271A00F0030000EE48
:1047B000C10A9FED251A009000EEC10A9FED231A51
:1047C00000EEC10A9FED221A00EEC10AB1E79FED8B
:1047D000211A9FED210A10F0020F00EE810A9FEDD1
:1047E0001F1A00EE801AB7EE000A00EE810A18BF09
:1047F000B1EE400A08BD00F0D9F89AE710EE100AB1
:104800004000B0F17F4F3CBFB7EE000A08BD07D1B2
:104810004FF0010000F084F9BDE8084000F0B6B8A0
:10482000BDE8084000F0ACB8B61F927E336D4CB9BD
:10483000DA82083CA0AA2ABE490E494683F9223FE3
:104840000000004B0000C93F00A0FD390020A2334A
:104850001A61342CB93AB2BACA9F2A3DDDFFFFBEB5
:1048600010EE100AC0F3C7517F391729A8BF70474F
:10487000DFED140A002970EE200A0DDAF5EEC00A09
:10488000F1EE10FA1ADD0028A8BF002016DAB0F108
:10489000004F18BF0C4811E00C4ACA40104208BF34
:1048A0007047F5EEC00AF1EE10FA07DD002804DAD1
:1048B0004FF4000323FA01F10844904300EE100A7C
:1048C00070470000CAF24971000080BFFFFF7F00FF
:1048D00010B52DED028BF0EE408A18EE900AB0EE86
:1048E000608A20F00040C0F1FF40C00F07D118EEF1
:1048F000100A20F00040C0F1FF40C00F2BD018EE8E
:10490000101A18EE900AFBF76CFF00EE100A10EE7A
:10491000100A6FEAD05010F0FF0F04BFBDEC028BFD
:1049200010BD18EE900A00F0004110EE100A00F0E1
:104930000040814204BFBDEC028B10BD18EE101A7E
:1049400010EE100ABDEC028B61F31E0000EE900A1F
:1049500030EE600A10BD18EE900A4FF07F41B1EBC7
:10496000400F1CBF18EE100A5FEA4000C7D10120BB
:1049700000F0D6F8BDEC028BBDE8104000F006B8A0
:1049800030EE000A704730EE200A7047DFED020A71
:1049900080EEA00A70470000000000009FED020AB0
:1049A00020EE000A70470000000000102DE9F00121
:1049B0004FF07F42B2EB410F9FBF4FF0FF310160DC
:1049C000BDE8F00170474FF0004242EA0123C1F315
:1049D000C752783A551112F01F0C434CCCF1200607
:1049E0007C44C1F3C752A2F178024FEA621204EB91
:1049F000820254F8254008BFD2E9015612D055680A
:104A000004FA0CF425FA06F73C43976805FA0CF50E
:104A100027FA06F8D26807FA0CFCF24045EA0805C6
:104A20004CEA0206A4FB034CA5FB0352A6FB03635E
:104A30001D449D4234BF012600261319334416B18C
:104A4000934202D903E0934201D2012200E0002206
:104A5000624402F1200C9206DC0C42EA443200EE81
:104A6000102A5B03DFED210AF8EEC01A00EE103ABF
:104A70004FEA9C1C11F0004FB8EE400AC0F800C08D
:104A800020EE201A00EE105ADFED190AB8EE400AA7
:104A900020EE200A71EE810A70EE800A10EE902A54
:104AA00002F500626FF30B0200EE902A70EEE11A3D
:104AB00031EEC11ADFED101A30EE411A9FED0D0AEA
:104AC00020EE800A01EE210A9FED0C1A00EE810A09
:104AD00004BFBDE8F0017047CCF180510160BDE832
:104AE000F001B1EE400A7047200A000000000036D5
:104AF0000000802C22AAFD29DB0FC92F0000C92F3E
:104B000002E008C8121F08C1002AFAD17047704796
:104B1000002001E001C1121F002AFBD170470000F4
:104B20000149086070470000040000202DE9FF5F84
:104B300082B00021DDE90430020DDDF840B003430E
:104B400018D044F61050A2F2FF32424315141198C7
:104B500001281FD0A5EB0B00401C5FEA000A4FF0B4
:104B600000064E4FDFF83891B046504615D5CAF1D1
:104B7000000413E0119801244AA3012801D16FEA2F
:104B80000B010298119AC0E90031C0E9024206B057
:104B9000BDE8F09FCBF10000DFE704460021404A6A
:104BA000491842EB0450CDE9001012E0E00707D0AD
:104BB00032463B4640464946FBF706FC804689465E
:104BC00032463B4610461946FBF7FEFB06460F46AB
:104BD0006410002CEAD1DDE90401DDE90023BAF11B
:104BE000000F06DAFBF7F0FB42464B46FBF7ECFB07
:104BF00005E0FBF75BFC42464B46FBF757FC0446DF
:104C00000E460022284BFBF78BFE03D84FF0FF30F7
:104C1000014607E00022254B20463146FBF72DFBDD
:104C2000FBF765FE102409E0002C0ADB0A220023B2
:104C3000FBF7D8FA039B30321A55641E50EA010282
:104C4000F2D1641C039AC4F111031444119A012A8D
:104C500003D0012208430DD10AE0084304D000200C
:104C60004FF0110B119072E7A3EB0B056D1E0DE0D9
:104C70005B4504DD4FF0000205F1010504E003DAB5
:104C80004FF00002A5F10105002AECD0029811991D
:104C9000C0E90231C0E9004579E700000000144096
:104CA0000000F03F300000000000F0430000E03F53
:104CB0002DE9FF4F95B09B468946064600250FE239
:104CC000252877D100242746F84A0121059400E0E1
:104CD000044316F8013F203B01FA03F01042F7D1DC
:104CE00030782A2811D06FF02F033078A0F13002ED
:104CF000092A16D8059A44F0020402EB820203EB5B
:104D000042021044761C0590EFE759F8042B0592F7
:104D1000002A03DA504244F40054059044F002049F
:104D2000761C30782E2816D116F8010F44F00404B2
:104D30002A280DD06FF02F023078A0F13003092B14
:104D400009D807EB870302EB4303C718761CF3E788
:104D500059F8047B761C30786C280FD006DC4C2880
:104D600017D068280DD06A2814D104E0742810D018
:104D70007A280FD10DE044F400140AE044F48014C2
:104D800001E044F440147278824202D104F58014A8
:104D9000761C761C307866280BD013DC582877D028
:104DA00009DC002875D04528F6D04628F4D04728DD
:104DB0001AD19DE118E0632835D0642879D06528A0
:104DC00012D195E1702873D008DC6728F1D06928EA
:104DD0006FD06E280DD06F2806D1B5E073282CD087
:104DE000752875D0782874D05A46179990476D1C4D
:104DF00075E1C4F30250022809D003280DD0D9F878
:104E0000001004280DD00D6009F1040967E1D9F8FC
:104E10000010EA17C1E90052F6E7D9F800100D803A
:104E2000F2E70D70F0E719F8041B8DF80010002070
:104E30008DF80100EA46012003E059F804AB4FF079
:104E4000FF3061074FF0000102D40DE008F10101CD
:104E50008846B9420FDA8045F8DB1AF808100029B5
:104E6000F4D108E008F1010188468142FADB1AF822
:104E700008100029F6D105985B46A0EB08072146EB
:104E80003846179A00F094FA284400EB080507E02A
:104E90004DE029E10DE01AF8010B5A4617999047A9
:104EA000B8F10108F7D25B4621463846179A13E15C
:104EB00042E00A220092C4F302524FF0000A022A92
:104EC00008D059F804CB032A4FEAEC710AD00DE060
:104ED00029E02AE009F1070121F00702F2E802C106
:104EE000914609E00FFA8CFC4FEAEC71042A03D1D9
:104EF0004FFA8CFC4FEAEC71002907DA0A460021D0
:104F0000DCF1000C61EB02012D2202E0220504D548
:104F10002B228DF80420012203E0E20701D0202299
:104F2000F7E7904659E00A2102E010220DE0102137
:104F30004FF0000A00910BE010224FF0000A44F0FD
:104F400004040827009203E008224FF0000A0092B0
:104F5000C4F30252022A05D059F804CB0021032AD7
:104F600008D009E009F1070121F00702F2E802C1C7
:104F7000914605E01FFA8CFC042A01D10CF0FF0CCD
:104F80004FF00008220728D5702806D0009B83F038
:104F9000100353EA0A0305D00EE040228DF80420E6
:104FA000012208E05CEA010206D030228DF80420DC
:104FB0008DF8050002229046009B83F0080353EA17
:104FC0000A030AD15CEA010201D1620705D5302249
:104FD0008DF804204FF001087F1E582804D034A01B
:104FE00003900EA802900DE036A0F9E75346604604
:104FF000009AFBF7F7F884460398825C0298401EFB
:10500000029002705CEA0100F0D1029806A9081A29
:1050100000F1200A600702D524F4803400E0012763
:10502000574502DDA7EB0A0000E0002000EB0A0173
:10503000009005984144401A0590E00306D45B4671
:105040002146179A059800F0B3F90544002706E0B9
:1050500001A85A46C05D179990476D1C7F1C4745B3
:10506000F6DBE0030CD55B462146179A059800F065
:105070009FF9054404E030205A46179990476D1C6B
:105080000099481E00900029F5DC08E0029802997A
:105090005A460078491C0291179990476D1CBAF145
:1050A0000001AAF1010AF1DC65E100000928010014
:1050B000303132333435363738396162636465668E
:1050C0000000000030313233343536373839414250
:1050D000434445460000000000F058F90544761CA2
:1050E000307800287FF4ECAD19B02846BDE8F08F89
:1050F000620700D4062709F1070222F0070CFCE83A
:105100000223E14603F000485FEA080C02D00FF2E8
:10511000702C0DE05FEA045C02D50FF2682C07E00A
:105120005FEAC47C02D00FF2602C01E0AFF2700C99
:105130004FF0FF3823F00043CDF850C065280CD065
:1051400006DC452809D046281DD047283DD13DE042
:10515000662818D067287ED138E00021112F01DBA6
:10516000112000E0781CCDE9000106A90EA8FFF788
:10517000DDFCDDE90F010E9A03910021009207F199
:10518000010A04914DE04FF000400097CDE9011075
:1051900006A90EA8FFF7CAFCDDE90F0203920E9BD9
:1051A00011990022DDF80CA00093049211B9791C2A
:1051B00000EB010AB7EB0A0004D4C0F1FF3007F19D
:1051C000010A0490AAEB0700019044E0012F00DAE5
:1051D00001270021112F01DD112000E03846CDE923
:1051E000000106A90EA8FFF7A1FCDDE90F010E9A48
:1051F0000391002104910092BA4621070CD403992F
:10520000514500DA8A46BAF1010F05DD009AAAF18C
:105210000101515C302908D0B84202DA10F1040FC4
:1052200006DA0121CDE9011015E0AAF10101E9E753
:10523000002805DC049901440491AAEB000102E076
:10524000411C514500DD8A460499401A401C0190DA
:105250004FF000400290200704D40198504501DB34
:10526000CDF8048000208DF84F0002980DF14F0713
:10527000B0F1004F25D02B200E9002984FF002087D
:1052800000280CDA404202902D200E9007E00A21FF
:105290000298FBF7F0F93031029007F8011DB8F1E0
:1052A0000001A8F10108F2DC02980028EFD1791E74
:1052B0000E980870307800F0200040F0450007F8A4
:1052C000020D12A8C01B00F107081498007800B165
:1052D000012000EB0A01019801EBE07105984144BF
:1052E000401A401E0590E00306D45B462146179AFB
:1052F000059800F05DF805441498007818B15A46F6
:10530000179990476D1CE00324D55B462146179AF8
:10531000059800F04DF805441CE00498002807DBD0
:10532000DDE90301884203DD0098405C179901E044
:10533000179930205A469047049805F10105401C02
:1053400004900198401E019004D12E205A461799CE
:1053500090476D1CBAF10001AAF1010ADDDC05E0FD
:1053600017F8010B5A46179990476D1CB8F10001C8
:10537000A8F10108F4DC5B462146179A0598ABE6D4
:105380002D0000002B000000200000002DE9F0415E
:10539000044600251E461746880404D405E0394615
:1053A0002020B0476D1C641EF9D52846BDE8F08169
:1053B0002DE9F041044600251E469046C80301D55C
:1053C000302700E02027880404D505E04146384610
:1053D000B0476D1C641EF9D52846BDE8F081000079
:1053E00010B5044601E0FEF7FFFB14F8010B044979
:1053F0000028F8D1BDE810400A20FEF7F5BB0000F8
:1054000000000020000000006E83F9A22915444E20
:10541000D15727FCC0DD34F5999562DB4190433CC0
:10542000AB6351FE0040404040404040404041415D
:105430004141414040404040404040404040404069
:105440004040404040050202020202020202020203
:105450000202020202202020202020202020200200
:105460000202020202029090909090901010101090
:10547000101010101010101010101010101010102C
:1054800002020202020288888888888808080808C0
:10549000080808080808080808080808080808088C
:1054A0000202020240000000255400080000000033
:1054B00000000000010203040607080900000000C4
:1054C00001020304000610160006101646726571EC
:1054D00075656E63792073657420746F3A20256456
:1054E0000D0A4F7574707574204D6F646520736577
:1054F0007420746F3A2025640D0A00693A256420EF
:10550000206C6F6F7020636F756E743A25640A00AB
:10551000E79BB8E4BD8DE5B7AE28322D31293A209E
:10552000252E36662C20E79BB8E4BD8DE5B7AE2866
:10553000332D32293A20252E36662C20E79BB8E4FD
:10554000BD8DE5B7AE28342D33293A20252E366699
:105550002C20667265715F61646A7573743A2025E8
:105560002E36660A00E697B6E997B43A20252E3221
:105570006620732C20E7AA97E58FA331E5B9B3E540
:105580009D87E79BB8E4BD8D3A20252E36662C20FA
:10559000E7AA97E58FA332E5B9B3E59D87E79BB806
:1055A000E4BD8D3A20252E36662C20E7AA97E58F9C
:1055B000A333E5B9B3E59D87E79BB8E4BD8D3A20F9
:1055C000252E36662C20E7AA97E58FA334E5B9B3DC
:1055D000E59D87E79BB8E4BD8D3A20252E36660A07
:1055E0000000000008560008000000202000000015
:1055F000004B00082856000820000020101E010063
:10560000104B000800000000000000000000000037
:10561000030100003D0A48420100000010000000A4
:085620000024F400000000006A
:04000005080001AD41
:00000001FF
